{
  "_format": "hh3-artifact-1",
  "contractName": "RedPack",
  "sourceName": "contracts/redPack.sol",
  "abi": [
    {
      "anonymous": false,
      "inputs": [
        {
          "indexed": true,
          "internalType": "uint256",
          "name": "id",
          "type": "uint256"
        },
        {
          "indexed": true,
          "internalType": "address",
          "name": "user",
          "type": "address"
        },
        {
          "indexed": false,
          "internalType": "uint256",
          "name": "amount",
          "type": "uint256"
        }
      ],
      "name": "grabbed",
      "type": "event"
    },
    {
      "anonymous": false,
      "inputs": [
        {
          "indexed": true,
          "internalType": "uint256",
          "name": "id",
          "type": "uint256"
        },
        {
          "indexed": true,
          "internalType": "address",
          "name": "creator",
          "type": "address"
        },
        {
          "indexed": false,
          "internalType": "uint256",
          "name": "amount",
          "type": "uint256"
        },
        {
          "indexed": false,
          "internalType": "uint256",
          "name": "size",
          "type": "uint256"
        }
      ],
      "name": "packetCreated",
      "type": "event"
    },
    {
      "inputs": [],
      "name": "PacketId",
      "outputs": [
        {
          "internalType": "uint256",
          "name": "",
          "type": "uint256"
        }
      ],
      "stateMutability": "view",
      "type": "function"
    },
    {
      "inputs": [
        {
          "internalType": "uint256",
          "name": "count",
          "type": "uint256"
        }
      ],
      "name": "createPacket",
      "outputs": [
        {
          "internalType": "uint256",
          "name": "",
          "type": "uint256"
        }
      ],
      "stateMutability": "payable",
      "type": "function"
    },
    {
      "inputs": [
        {
          "internalType": "uint256",
          "name": "id",
          "type": "uint256"
        }
      ],
      "name": "grabPacket",
      "outputs": [],
      "stateMutability": "nonpayable",
      "type": "function"
    },
    {
      "inputs": [
        {
          "internalType": "uint256",
          "name": "",
          "type": "uint256"
        }
      ],
      "name": "packets",
      "outputs": [
        {
          "internalType": "address",
          "name": "creator",
          "type": "address"
        },
        {
          "internalType": "uint256",
          "name": "totalAmount",
          "type": "uint256"
        },
        {
          "internalType": "uint256",
          "name": "remainAmount",
          "type": "uint256"
        },
        {
          "internalType": "uint256",
          "name": "packetSize",
          "type": "uint256"
        },
        {
          "internalType": "uint256",
          "name": "remainSize",
          "type": "uint256"
        }
      ],
      "stateMutability": "view",
      "type": "function"
    }
  ],
  "bytecode": "0x6080604052348015600e575f5ffd5b5061097b8061001c5f395ff3fe60806040526004361061003e575f3560e01c80633570b18614610042578063d03b32a61461006c578063d0a9e0c014610094578063e41675e1146100d4575b5f5ffd5b34801561004d575f5ffd5b50610056610104565b604051610063919061051b565b60405180910390f35b348015610077575f5ffd5b50610092600480360381019061008d9190610562565b610109565b005b34801561009f575f5ffd5b506100ba60048036038101906100b59190610562565b610341565b6040516100cb9594939291906105cc565b60405180910390f35b6100ee60048036038101906100e99190610562565b610392565b6040516100fb919061051b565b60405180910390f35b5f5481565b5f60015f8381526020019081526020015f2090505f816004015411610163576040517f08c379a000000000000000000000000000000000000000000000000000000000815260040161015a90610677565b60405180910390fd5b806005015f3373ffffffffffffffffffffffffffffffffffffffff1673ffffffffffffffffffffffffffffffffffffffff1681526020019081526020015f205f9054906101000a900460ff16156101ef576040517f08c379a00000000000000000000000000000000000000000000000000000000081526004016101e690610705565b60405180910390fd5b5f6001826004015403610208578160020154905061021f565b8160030154826002015461021c919061077d565b90505b816004015f815480929190610233906107ad565b919050555080826002015f82825461024b91906107d4565b925050819055506001826005015f3373ffffffffffffffffffffffffffffffffffffffff1673ffffffffffffffffffffffffffffffffffffffff1681526020019081526020015f205f6101000a81548160ff0219169083151502179055503373ffffffffffffffffffffffffffffffffffffffff166108fc8290811502906040515f60405180830381858888f193505050501580156102ec573d5f5f3e3d5ffd5b503373ffffffffffffffffffffffffffffffffffffffff16837fba8d274e9bc7240a667f41a72b0fa2b34166d277d19841b0bd3cbd5fb3c6ace983604051610334919061051b565b60405180910390a3505050565b6001602052805f5260405f205f91509050805f015f9054906101000a900473ffffffffffffffffffffffffffffffffffffffff16908060010154908060020154908060030154908060040154905085565b5f5f34116103d5576040517f08c379a00000000000000000000000000000000000000000000000000000000081526004016103cc90610851565b60405180910390fd5b5f8211610417576040517f08c379a000000000000000000000000000000000000000000000000000000000815260040161040e906108b9565b60405180910390fd5b5f5f815480929190610428906108d7565b91905055505f60015f5f5481526020019081526020015f20905033815f015f6101000a81548173ffffffffffffffffffffffffffffffffffffffff021916908373ffffffffffffffffffffffffffffffffffffffff1602179055503481600101819055503481600201819055508281600301819055508281600401819055503373ffffffffffffffffffffffffffffffffffffffff165f547fd390a675772dc0e7dae2b4be5316c6bba7f84f3421f96af43e07dbd23d94787d34866040516104f192919061091e565b60405180910390a35f54915050919050565b5f819050919050565b61051581610503565b82525050565b5f60208201905061052e5f83018461050c565b92915050565b5f5ffd5b61054181610503565b811461054b575f5ffd5b50565b5f8135905061055c81610538565b92915050565b5f6020828403121561057757610576610534565b5b5f6105848482850161054e565b91505092915050565b5f73ffffffffffffffffffffffffffffffffffffffff82169050919050565b5f6105b68261058d565b9050919050565b6105c6816105ac565b82525050565b5f60a0820190506105df5f8301886105bd565b6105ec602083018761050c565b6105f9604083018661050c565b610606606083018561050c565b610613608083018461050c565b9695505050505050565b5f82825260208201905092915050565b7f54686973207061636b657420697320616c6c726561647920656d7074792e00005f82015250565b5f610661601e8361061d565b915061066c8261062d565b602082019050919050565b5f6020820190508181035f83015261068e81610655565b9050919050565b7f596f752061726520616c6c7265616479206772616265642074686973207061635f8201527f6b65746400000000000000000000000000000000000000000000000000000000602082015250565b5f6106ef60248361061d565b91506106fa82610695565b604082019050919050565b5f6020820190508181035f83015261071c816106e3565b9050919050565b7f4e487b71000000000000000000000000000000000000000000000000000000005f52601260045260245ffd5b7f4e487b71000000000000000000000000000000000000000000000000000000005f52601160045260245ffd5b5f61078782610503565b915061079283610503565b9250826107a2576107a1610723565b5b828204905092915050565b5f6107b782610503565b91505f82036107c9576107c8610750565b5b600182039050919050565b5f6107de82610503565b91506107e983610503565b925082820390508181111561080157610800610750565b5b92915050565b7f5061636b65746420616d6f756e742063616e6e6f7420626520300000000000005f82015250565b5f61083b601a8361061d565b915061084682610807565b602082019050919050565b5f6020820190508181035f8301526108688161082f565b9050919050565b7f5061636b65742073697a652063616e6e6f7420626520300000000000000000005f82015250565b5f6108a360178361061d565b91506108ae8261086f565b602082019050919050565b5f6020820190508181035f8301526108d081610897565b9050919050565b5f6108e182610503565b91507fffffffffffffffffffffffffffffffffffffffffffffffffffffffffffffffff820361091357610912610750565b5b600182019050919050565b5f6040820190506109315f83018561050c565b61093e602083018461050c565b939250505056fea26469706673582212201b02a3a481cf0b0ff2eee70bb1eaef78f05f607c60c3e32bb59ad41a653876cb64736f6c634300081c0033",
  "linkReferences": {},
  "deployedLinkReferences": {},
  "immutableReferences": {},
  "inputSourceName": "project/contracts/redPack.sol",
  "buildInfoId": "solc-0_8_28-15f2b1f4a04ea2feadb1923e6f6bba7d7d284834"
}